:020000040800F2
:1000000020040020C101000835040008DB030008BB
:100010003104000809020008C104000800000000C3
:10002000000000000000000000000000590400086B
:100030004903000800000000370400085B040008C2
:10004000DB010008DB010008DB010008DB01000820
:10005000DB010008DB010008DB010008DB01000810
:10006000DB010008DB010008DB010008DB01000800
:10007000DB0100080D020008DB0100084D0200084A
:10008000DB010008DB010008DB010008DB010008E0
:10009000DB010008DB010008DB010008DB010008D0
:1000A000DB010008DB010008DB010008DB010008C0
:1000B000DB010008DB010008DB010008DB010008B0
:1000C000DB010008DB010008DB010008DB010008A0
:1000D000DB010008DB010008DB010008DB01000890
:1000E000DB010008DB010008DB010008DB01000880
:1000F000DB010008DB010008DB010008DB01000870
:10010000DB010008DB010008DB010008DB0100085F
:10011000DB010008DB010008DB010008DB0100084F
:10012000DB010008DB010008DB010008DB0100083F
:10013000DB010008DB010008DB010008DB0100082F
:10014000DB010008DB010008DB010008DB0100081F
:10015000DB010008DB010008DB010008DB0100080F
:10016000DB010008DB010008DB010008DB010008FF
:10017000DB010008DB010008DB01000800000000D3
:10018000DB010008DB010008DB010008DB010008DF
:10019000DB010008DB010008DB010008DB010008CF
:1001A000DB010008DB010008DB010008DFF80CD0F0
:1001B00000F018F800480047E5040008200400207B
:1001C0000648804706480047FEE7FEE7FEE7FEE7F1
:1001D000FEE7FEE7FEE7FEE7FEE7FEE75D04000858
:1001E000AD010008064C074D06E0E06840F0010351
:1001F00094E8070098471034AC42F6D3FFF7DAFFD3
:10020000640500088405000800BFFEE710B54FF044
:1002100081510B4800F076F880B10121094800F0C7
:10022000DEF80021064800F061F84FF081510448E3
:1002300000F042F8002004490968088010BD000061
:1002400040600240005C00401000002010B51449DE
:10025000144800F057F810B30021124800F046F897
:100260000F49104800F028F84FF420400E4908606C
:1002700007E00D490868411E0B4A116008B900F0FB
:100280006FF90A490A4800F0B6F80028F1D00121B8
:10029000074800F0A4F8002006490968087010BD5E
:1002A00020000020706002400C00002004000010BC
:1002B000005C0040140000200246094B9A4201D223
:1002C000084801E00648103801F000531BB1064B06
:1002D0000B40C36002E0044B0B408360704700009A
:1002E00010640240006002407D0F7D0F21B1026862
:1002F00042F00102026003E0026822F001020260A3
:100300007047000030B503460A46002000240B4D1C
:10031000AB4201D20A4901E00849103902F0005508
:100320000DB14C6800E00C68064D2C4004EA020553
:100330000DB1012000E0002030BD0000106402403B
:10034000006002407D0F7D0F7047F0B50A46002126
:100350000023002400BF3DE0012505FA01F31568E4
:1003600005EA03049C4234D105684F000326BE40D1
:10037000B543056015794E00B54006683543056004
:100380001579012D02D01579022D16D185684F00FF
:100390000326BE40B543856055794E00B54086685A
:1003A00035438560456801268E40B5434560456804
:1003B00096798E40B6B235434560C5684F00032636
:1003C000BE40B543C560D5794E00B540C6683543DB
:1003D000C560491C1029BFD3F0BD00BFFEE721B1A5
:1003E000028842F40072028004E002884FF6FF5354
:1003F0001A40028070470CB502460020002301938A
:10040000009300920B0F019321F07F41019B1BB1E0
:10041000009B1433009303E0090C009B18330093F6
:10042000009B1B680B400BB1012000E000200CBDBD
:1004300000BFFEE77047704729B1064A12680243C1
:10044000044B1A6004E0034A12688243014B1A60AD
:100450007047000030380240704770471448006809
:1004600040F47000124908601248006840F0010032
:100470001049086000200F49083108600D480068E5
:100480000D4908400B4908600C48091D0860081F09
:10049000006820F48020091F0860002005490C3105
:1004A00008604FF000600249803908607047000022
:1004B00088ED00E000380240FFFFF6FE1030002417
:1004C00000BFFEE702E008C8121F08C1002AFAD1E7
:1004D00070477047002001E001C1121F002AFBD1C4
:1004E0007047000001214020FFF7A6FF4FF4C040F5
:1004F00018490860012008710020887101204871A6
:100500000020C8711448FFF720FF01210846FFF7BB
:1005100093FF01200F49086000200871C8710F483F
:10052000FFF713FF14E04FF400500B491A31088015
:100530004000088006E04FF4005007491831088059
:10054000400008800548006900F001000028F2D151
:10055000E9E700000000002000180240000002400F
:1005600000BFFEE784050008000000201C0000001A
:10057000C4040008A00500081C00002004040000BA
:10058000D40400080000000000000000000000008B
:1005900000A00000000000000000000000000000BB
:04000005080001AD41
:00000001FF
