:020000040800F2
:1000000038040020C101000853040008F903000867
:100010004F04000809020008B105000800000000B4
:10002000000000000000000000000000790400084B
:100030004903000800000000550400087D04000882
:10004000DB010008DB010008DB010008DB01000820
:10005000DB010008DB010008DB010008DB01000810
:10006000DB010008DB010008DB010008DB01000800
:10007000DB0100080D020008DB0100084D0200084A
:10008000DB010008DB010008DB010008DB010008E0
:10009000DB010008DB010008DB010008DB010008D0
:1000A000DB010008DB010008DB010008DB010008C0
:1000B000DB010008DB010008DB010008DB010008B0
:1000C000DB010008DB010008DB010008DB010008A0
:1000D000DB010008DB010008DB010008DB01000890
:1000E000DB010008DB010008DB010008DB01000880
:1000F000DB010008DB010008DB010008DB01000870
:10010000DB010008DB010008DB010008DB0100085F
:10011000DB010008DB010008DB010008DB0100084F
:10012000DB010008DB010008DB010008DB0100083F
:10013000DB010008DB010008DB010008DB0100082F
:10014000DB010008DB010008DB010008DB0100081F
:10015000DB010008DB010008DB010008DB0100080F
:10016000DB010008DB010008DB010008DB010008FF
:10017000DB010008DB010008DB01000800000000D3
:10018000DB010008DB010008DB010008DB010008DF
:10019000DB010008DB010008DB010008DB010008CF
:1001A000DB010008DB010008DB010008DFF80CD0F0
:1001B00000F018F800480047D50500083804002072
:1001C0000648804706480047FEE7FEE7FEE7FEE7F1
:1001D000FEE7FEE7FEE7FEE7FEE7FEE74D05000867
:1001E000AD010008064C074D06E0E06840F0010351
:1001F00094E8070098471034AC42F6D3FFF7DAFFD3
:10020000A0060008C006000800BFFEE710B54FF0CA
:1002100081510B4800F076F880B10121094800F0C7
:10022000EDF80021064800F061F84FF081510448D4
:1002300000F042F8002004490968088010BD000061
:1002400040600240005C00401400002010B51449DA
:10025000144800F057F810B30021124800F046F897
:100260000F49104800F028F84FF420400E4908606C
:1002700007E00D490868411E0B4A116008B900F0FB
:100280000DFA0A490A4800F0C5F80028F1D001210A
:10029000074800F0B3F8002006490968087010BD4F
:1002A00020000020706002401000002004000010B8
:1002B000005C0040180000200246094B9A4201D21F
:1002C000084801E00648103801F000531BB1064B06
:1002D0000B40C36002E0044B0B408360704700009A
:1002E00010640240006002407D0F7D0F21B1026862
:1002F00042F00102026003E0026822F001020260A3
:100300007047000030B503460A46002000240B4D1C
:10031000AB4201D20A4901E00849103902F0005508
:100320000DB14C6800E00C68064D2C4004EA020553
:100330000DB1012000E0002030BD0000106402403B
:10034000006002407D0F7D0F7047000001B5054938
:10035000086800BF03490968091A009A9142F9D355
:1003600008BD000008000020F0B50A460021002367
:10037000002400BF3DE0012505FA01F3156805EAF8
:1003800003049C4234D105684F000326BE40B543A8
:10039000056015794E00B54006683543056015794E
:1003A000012D02D01579022D16D185684F00032644
:1003B000BE40B543856055794E00B54086683543EB
:1003C0008560456801268E40B5434560456896794D
:1003D0008E40B6B235434560C5684F000326BE4027
:1003E000B543C560D5794E00B540C6683543C56094
:1003F000491C1029BFD3F0BD00BFFEE721B1028820
:1004000042F40072028004E002884FF6FF531A4063
:10041000028070470CB50246002000230193009330
:1004200000920B0F019321F07F41019B1BB1009BB8
:100430001433009303E0090C009B18330093009BD6
:100440001B680B400BB1012000E000200CBD00BF79
:10045000FEE770477047000029B1064A1268024360
:10046000044B1A6004E0034A12688243014B1A608D
:1004700070470000303802407047000002480068B2
:10048000401C0149086070470800002070B500203A
:100490000022022300240221274D2D6805F00C00C4
:1004A00020B1042806D0082834D107E0234D244E7B
:1004B000356033E0234D224E35602FE01E4D2D1F59
:1004C0002D68C5F380541C4D2D1F2D6805F03F018C
:1004D00054B11C4DB5FBF1F5174E361F3668C6F307
:1004E000881605FB06F209E0144DB5FBF1F5124E36
:1004F000361F3668C6F3881605FB06F20E4D2D1F13
:100500002D68C5F301456D1C6B00B2FBF3F50C4E75
:10051000356003E0094D0A4E356000BF00BF064D4F
:100520002D68C5F30315084E705D054D2D68C54057
:10053000034E356070BD0000083802400024F4000E
:100540002000002000127A002400002014480068D7
:1005500040F47000124908601248006840F0010041
:100560001049086000200F49083108600D480068F4
:100570000D4908400B4908600C48091D0860081F18
:10058000006820F48020091F0860002005490C3114
:1005900008604FF000600249803908607047000031
:1005A00088ED00E000380240FFFFF6FE1030002426
:1005B00000BFFEE702E008C8121F08C1002AFAD1F6
:1005C00070477047002001E001C1121F002AFBD1D3
:1005D00070470000FFF75AFF2B48006842F2107284
:1005E000B0FBF2F1481EB0F1807F01D301201BE087
:1005F000481E4FF0E022506150170F22002807DA02
:1006000013071D0E214B00F00F04241F1D5503E09E
:1006100013071C0E1E4B1C5400BF00204FF0E0229D
:10062000906107201061002008B100BFFEE70121A2
:100630004020FFF711FF4FF4C04016490860012029
:10064000087100208871012048710020C87112488B
:10065000FFF78AFE17E04FF400500F491831088069
:100660004000891C088042F21070FFF76FFE4FF4C3
:10067000005009491A3108804000891E088042F262
:100680001070FFF763FEE6E72000002018ED00E0A1
:1006900000E400E0000000200018024000BFFEE778
:1006A000C00600080000002034000000B405000867
:1006B000F40600083400002004040000C40500080B
:1006C000000000000000000000000000000000002A
:1006D00000A000000000000000000000000000007A
:1006E0000024F400000000000000000001020304E8
:0406F00006070809E8
:04000005080001AD41
:00000001FF
