:020000040800F2
:1000000030040020C10100083D040008E30300089B
:1000100039040008090200089108000800000000E7
:10002000000000000000000000000000490500087A
:1000300049030008000000003F0400081D080008F4
:10004000DB010008DB010008DB010008DB01000820
:10005000DB010008DB010008DB010008DB01000810
:10006000DB010008DB010008DB010008DB01000800
:10007000DB0100080D020008DB0100084D0200084A
:10008000DB010008DB010008DB010008DB010008E0
:10009000DB010008DB010008DB010008DB010008D0
:1000A000DB010008DB010008DB010008DB010008C0
:1000B000DB010008DB010008DB010008DB010008B0
:1000C000DB010008DB010008DB010008DB010008A0
:1000D000DB010008DB010008DB010008DB01000890
:1000E000DB010008DB010008DB010008DB01000880
:1000F000DB010008DB010008DB010008DB01000870
:10010000DB010008DB010008DB010008DB0100085F
:10011000DB010008DB010008DB010008DB0100084F
:10012000DB010008DB010008DB010008DB0100083F
:10013000DB010008DB010008DB010008DB0100082F
:10014000DB010008DB010008DB010008DB0100081F
:10015000DB010008DB010008DB010008DB0100080F
:10016000DB010008DB010008DB010008DB010008FF
:10017000DB010008DB010008DB01000800000000D3
:10018000DB010008DB010008DB010008DB010008DF
:10019000DB010008DB010008DB010008DB010008CF
:1001A000DB010008DB010008DB010008DFF80CD0F0
:1001B00000F018F800480047F50800083004002057
:1001C0000648804706480047FEE7FEE7FEE7FEE7F1
:1001D000FEE7FEE7FEE7FEE7FEE7FEE72D08000884
:1001E000AD010008064C074D06E0E06840F0010351
:1001F00094E8070098471034AC42F6D3FFF7DAFFD3
:10020000740900089409000800BFFEE710B54FF01C
:1002100081510B4800F076F880B10121094800F0C7
:10022000E2F80021064800F061F84FF081510448DF
:1002300000F042F8002004490968088010BD000061
:1002400040600240005C00401000002010B51449DE
:10025000144800F057F810B30021124800F046F897
:100260000F49104800F028F84FF420400E4908606C
:1002700007E00D490868411E0B4A116008B900F0FB
:1002800077FB0A490A4800F0BAF80028F1D00121AA
:10029000074800F0A8F8002006490968087010BD5A
:1002A00020000020706002400C00002004000010BC
:1002B000005C0040140000200246094B9A4201D223
:1002C000084801E00648103801F000531BB1064B06
:1002D0000B40C36002E0044B0B408360704700009A
:1002E00010640240006002407D0F7D0F21B1026862
:1002F00042F00102026003E0026822F001020260A3
:100300007047000030B503460A46002000240B4D1C
:10031000AB4201D20A4901E00849103902F0005508
:100320000DB14C6800E00C68064D2C4004EA020553
:100330000DB1012000E0002030BD0000106402403B
:10034000006002407D0F7D0F7047F0B50A46002126
:100350000023002400BF3DE0012505FA01F31568E4
:1003600005EA03049C4234D105684F000326BE40D1
:10037000B543056015794E00B54006683543056004
:100380001579012D02D01579022D16D185684F00FF
:100390000326BE40B543856055794E00B54086685A
:1003A00035438560456801268E40B5434560456804
:1003B00096798E40B6B235434560C5684F00032636
:1003C000BE40B543C560D5794E00B540C6683543DB
:1003D000C560491C1029BFD3F0BD4183704701831C
:1003E000704700BFFEE721B1028842F4007202802C
:1003F00004E002884FF6FF531A40028070470CB5A4
:100400000246002000230193009300920B0F0193FA
:1004100021F07F41019B1BB1009B1433009303E04B
:10042000090C009B18330093009B1B680B400BB119
:10043000012000E000200CBD00BFFEE770477047C0
:1004400029B1064A12680243044B1A6004E0034AC9
:1004500012688243014B1A60704700003038024036
:10046000F0B5002100220024022500260223324F8D
:100470003F6807F00C0121B1042905D0082937D1C4
:1004800005E02E4F076036E02D4F076033E02A4F1E
:100490003F1F3F68C7F38056274F3F1F3F6807F055
:1004A0003F036EB1264FB7FBF3F7DFF88CC0ACF11A
:1004B000040CDCF800C0CCF3881C07FB0CF40CE047
:1004C0001E4FB7FBF3F7DFF870C0ACF1040CDCF89B
:1004D00000C0CCF3881C07FB0CF4174F3F1F3F688C
:1004E000C7F301477F1C7D00B4FBF5F7076002E00E
:1004F000124F076000BF00BF0F4F3F6807F0F001C9
:100500000909104F7A5C0768D74047600A4F3F6877
:1005100007F4E051890A0B4F7A5C4768D74087603F
:10052000054F3F6807F46041490B064F7A5C476806
:10053000D740C760F0BD0000083802400024F40036
:1005400000127A00190000207047000007B59DF8DE
:10055000000020B101212848FFF741FF03E00121FD
:100560002548FFF73AFF9DF8010020B102212248FB
:10057000FFF735FF03E002211F48FFF72EFF9DF82C
:10058000020020B104211C48FFF729FF03E00421E9
:100590001948FFF722FF9DF8030020B108211648F3
:1005A000FFF71DFF03E008211348FFF716FF9DF832
:1005B000040020B110211048FFF711FF03E01021C3
:1005C0000D48FFF70AFF9DF8050020B120210A48D9
:1005D000FFF705FF03E020210748FFF7FEFE9DF827
:1005E000060020B140210448FFF7F9FE03E0402156
:1005F0000148FFF7F2FE0EBD000C02401CB50121C0
:100600000820FFF71DFFFF20009001208DF8040057
:1006100000208DF8060001208DF8050000208DF8DF
:10062000070069460948FFF790FE01210846FFF7D9
:1006300007FF0120009000208DF804008DF80700CE
:1006400069460348FFF781FE1CBD0000000C024014
:1006500000000240F0B505ACF0CC01704270837030
:10066000C470057146718771F0BD3FB505460C46F3
:10067000102C78D2DFE804F00814202D3A47535F9D
:100680006B7885929EAAB6C200200121009101914B
:100690000B460A46CDE902102846FFF7DBFFBBE018
:1006A000002000900190029001231A460146039019
:1006B0002846FFF7CFFFAFE0012000210090CDE9F1
:1006C00001010B460246014603902846FFF7C2FF90
:1006D000A2E001200021CDE9000103460246CDE958
:1006E000021001462846FFF7B5FF95E001200022E1
:1006F0000092CDE9012003460246002103902846DE
:10070000FFF7A8FF88E001200022CDE90002029057
:100710000346014603902846FFF79CFF7CE001203A
:100720000090019002900346002201460390284663
:10073000FFF790FF70E000200090019002900123ED
:100740001A46194603902846FFF784FF64E001200B
:10075000009001900290034602460146039028460D
:10076000FFF778FF58E055E001200022CDE90002B4
:10077000029003460246014603902846FFF76AFFAF
:100780004AE001200023CDE90030029003460246F2
:10079000014603902846FFF75DFF3DE001200090F1
:1007A0000190029003460022114603902846FFF76D
:1007B00051FF31E0002001210091019103460246E2
:1007C000CDE902102846FFF745FF25E00020012172
:1007D000009101910B460A46CDE902102846FFF729
:1007E00039FF19E0012000900190029000231A4681
:1007F000014603902846FFF72DFF0DE0012000235E
:10080000CDE9003002901A46014603902846FFF7D2
:1008100021FF01E0002400BF00BF3FBD0248006887
:10082000401C01490860704704000020144800681B
:1008300040F47000124908601248006840F001005E
:100840001049086000200F49083108600D48006811
:100850000D4908400B4908600C48091D0860081F35
:10086000006820F48020091F0860002005490C3131
:1008700008604FF00060024980390860704700004E
:1008800088ED00E000380240FFFFF6FE1030002443
:1008900000BFFEE702E008C8121F08C1002AFAD113
:1008A00070477047002001E001C1121F002AFBD1F0
:1008B000704700001FB56846FFF7D2FD0349019855
:1008C000B0FBF1F0024908601FBD000000093D00C7
:1008D000000000204FF47A714143054A12685143E9
:1008E000A1F10A0000BF011EA0F10100FBD1704779
:1008F000000000200EB5FFF7DDFFFFF77FFE0020B0
:100900008DF8080000242FE01848006900F001006D
:1009100038B19DF8080008B9012000E000208DF8EA
:1009200008000F2C03DB9DF8080000B10024002C08
:1009300003DC9DF8080000B90F249DF8080030B1D1
:10094000601C044601466846FFF78FFE05E0601E06
:10095000044601466846FFF788FE9DE80700FFF75A
:10096000F5FDC820FFF7B6FFCEE70000000002400B
:1009700000BFFEE794090008000000202C000000E2
:1009800094080008C00900082C000020040400009E
:10099000A4080008000000000000000000000000A3
:1009A00000A00000000000000000000000000000A7
:1009B0000001020304010203040607080900000005
:04000005080001AD41
:00000001FF
